{
  "_format": "hh-sol-artifact-1",
  "contractName": "VotingContract",
  "sourceName": "contracts/VotingContract.sol",
  "abi": [
    {
      "inputs": [
        {
          "internalType": "string",
          "name": "_proposal_name",
          "type": "string"
        },
        {
          "internalType": "string",
          "name": "_proposal_description",
          "type": "string"
        }
      ],
      "stateMutability": "payable",
      "type": "constructor"
    },
    {
      "anonymous": false,
      "inputs": [
        {
          "indexed": true,
          "internalType": "address",
          "name": "from",
          "type": "address"
        },
        {
          "indexed": false,
          "internalType": "uint256",
          "name": "timestamp",
          "type": "uint256"
        },
        {
          "indexed": false,
          "internalType": "string",
          "name": "name",
          "type": "string"
        }
      ],
      "name": "NewProposalOrVote",
      "type": "event"
    },
    {
      "inputs": [
        {
          "internalType": "uint256",
          "name": "_index",
          "type": "uint256"
        }
      ],
      "name": "getProposal",
      "outputs": [
        {
          "components": [
            {
              "internalType": "string",
              "name": "name",
              "type": "string"
            },
            {
              "internalType": "string",
              "name": "description",
              "type": "string"
            },
            {
              "internalType": "uint256",
              "name": "voteCount",
              "type": "uint256"
            }
          ],
          "internalType": "struct VotingContract.Proposal",
          "name": "",
          "type": "tuple"
        }
      ],
      "stateMutability": "view",
      "type": "function"
    },
    {
      "inputs": [],
      "name": "getProposals",
      "outputs": [
        {
          "components": [
            {
              "internalType": "string",
              "name": "name",
              "type": "string"
            },
            {
              "internalType": "string",
              "name": "description",
              "type": "string"
            },
            {
              "internalType": "uint256",
              "name": "voteCount",
              "type": "uint256"
            }
          ],
          "internalType": "struct VotingContract.Proposal[]",
          "name": "",
          "type": "tuple[]"
        }
      ],
      "stateMutability": "view",
      "type": "function"
    },
    {
      "inputs": [],
      "name": "owner",
      "outputs": [
        {
          "internalType": "address payable",
          "name": "",
          "type": "address"
        }
      ],
      "stateMutability": "view",
      "type": "function"
    },
    {
      "inputs": [
        {
          "internalType": "uint256",
          "name": "",
          "type": "uint256"
        }
      ],
      "name": "proposals",
      "outputs": [
        {
          "internalType": "string",
          "name": "name",
          "type": "string"
        },
        {
          "internalType": "string",
          "name": "description",
          "type": "string"
        },
        {
          "internalType": "uint256",
          "name": "voteCount",
          "type": "uint256"
        }
      ],
      "stateMutability": "view",
      "type": "function"
    },
    {
      "inputs": [
        {
          "internalType": "string",
          "name": "_proposal_name",
          "type": "string"
        },
        {
          "internalType": "string",
          "name": "_proposal_description",
          "type": "string"
        }
      ],
      "name": "sendProposal",
      "outputs": [],
      "stateMutability": "payable",
      "type": "function"
    },
    {
      "inputs": [
        {
          "internalType": "uint256",
          "name": "_index",
          "type": "uint256"
        }
      ],
      "name": "voteProposal",
      "outputs": [],
      "stateMutability": "payable",
      "type": "function"
    },
    {
      "inputs": [
        {
          "internalType": "address",
          "name": "",
          "type": "address"
        }
      ],
      "name": "voters",
      "outputs": [
        {
          "internalType": "bool",
          "name": "voted",
          "type": "bool"
        },
        {
          "internalType": "bool",
          "name": "proposed",
          "type": "bool"
        }
      ],
      "stateMutability": "view",
      "type": "function"
    }
  ],
  "bytecode": "0x608060405260405162001bbf38038062001bbf83398181016040528101906200002991906200034f565b336000806101000a81548173ffffffffffffffffffffffffffffffffffffffff021916908373ffffffffffffffffffffffffffffffffffffffff16021790555060016040518060600160405280848152602001838152602001600181525090806001815401808255809150506001900390600052602060002090600302016000909190919091506000820151816000019080519060200190620000ce92919062000102565b506020820151816001019080519060200190620000ed92919062000102565b50604082015181600201555050505062000439565b828054620001109062000403565b90600052602060002090601f01602090048101928262000134576000855562000180565b82601f106200014f57805160ff191683800117855562000180565b8280016001018555821562000180579182015b828111156200017f57825182559160200191906001019062000162565b5b5090506200018f919062000193565b5090565b5b80821115620001ae57600081600090555060010162000194565b5090565b6000604051905090565b600080fd5b600080fd5b600080fd5b600080fd5b6000601f19601f8301169050919050565b7f4e487b7100000000000000000000000000000000000000000000000000000000600052604160045260246000fd5b6200021b82620001d0565b810181811067ffffffffffffffff821117156200023d576200023c620001e1565b5b80604052505050565b600062000252620001b2565b905062000260828262000210565b919050565b600067ffffffffffffffff821115620002835762000282620001e1565b5b6200028e82620001d0565b9050602081019050919050565b60005b83811015620002bb5780820151818401526020810190506200029e565b83811115620002cb576000848401525b50505050565b6000620002e8620002e28462000265565b62000246565b905082815260208101848484011115620003075762000306620001cb565b5b620003148482856200029b565b509392505050565b600082601f830112620003345762000333620001c6565b5b815162000346848260208601620002d1565b91505092915050565b60008060408385031215620003695762000368620001bc565b5b600083015167ffffffffffffffff8111156200038a5762000389620001c1565b5b62000398858286016200031c565b925050602083015167ffffffffffffffff811115620003bc57620003bb620001c1565b5b620003ca858286016200031c565b9150509250929050565b7f4e487b7100000000000000000000000000000000000000000000000000000000600052602260045260246000fd5b600060028204905060018216806200041c57607f821691505b60208210811415620004335762000432620003d4565b5b50919050565b61177680620004496000396000f3fe6080604052600436106100705760003560e01c806384a5646f1161004e57806384a5646f146100fb5780638da5cb5b14610117578063a3ec138d14610142578063c7f758a81461018057610070565b8063013cf08b1461007557806362564c48146100b4578063807896d5146100df575b600080fd5b34801561008157600080fd5b5061009c60048036038101906100979190610d47565b6101bd565b6040516100ab93929190610e1c565b60405180910390f35b3480156100c057600080fd5b506100c9610307565b6040516100d69190610fd3565b60405180910390f35b6100f960048036038101906100f49190610d47565b610494565b005b6101156004803603810190610110919061112a565b6106fb565b005b34801561012357600080fd5b5061012c6109ab565b60405161013991906111e3565b60405180910390f35b34801561014e57600080fd5b506101696004803603810190610164919061123c565b6109cf565b604051610177929190611284565b60405180910390f35b34801561018c57600080fd5b506101a760048036038101906101a29190610d47565b610a0d565b6040516101b49190611304565b60405180910390f35b600181815481106101cd57600080fd5b90600052602060002090600302016000915090508060000180546101f090611355565b80601f016020809104026020016040519081016040528092919081815260200182805461021c90611355565b80156102695780601f1061023e57610100808354040283529160200191610269565b820191906000526020600020905b81548152906001019060200180831161024c57829003601f168201915b50505050509080600101805461027e90611355565b80601f01602080910402602001604051908101604052809291908181526020018280546102aa90611355565b80156102f75780601f106102cc576101008083540402835291602001916102f7565b820191906000526020600020905b8154815290600101906020018083116102da57829003601f168201915b5050505050908060020154905083565b60606001805480602002602001604051908101604052809291908181526020016000905b8282101561048b578382906000526020600020906003020160405180606001604052908160008201805461035e90611355565b80601f016020809104026020016040519081016040528092919081815260200182805461038a90611355565b80156103d75780601f106103ac576101008083540402835291602001916103d7565b820191906000526020600020905b8154815290600101906020018083116103ba57829003601f168201915b505050505081526020016001820180546103f090611355565b80601f016020809104026020016040519081016040528092919081815260200182805461041c90611355565b80156104695780601f1061043e57610100808354040283529160200191610469565b820191906000526020600020905b81548152906001019060200180831161044c57829003601f168201915b505050505081526020016002820154815250508152602001906001019061032b565b50505050905090565b6000600260003373ffffffffffffffffffffffffffffffffffffffff1673ffffffffffffffffffffffffffffffffffffffff16815260200190815260200160002090508060000160009054906101000a900460ff1615610529576040517f08c379a0000000000000000000000000000000000000000000000000000000008152600401610520906113d3565b60405180910390fd5b600066038d7ea4c68000905080341015610578576040517f08c379a000000000000000000000000000000000000000000000000000000000815260040161056f9061143f565b60405180910390fd5b60008060009054906101000a900473ffffffffffffffffffffffffffffffffffffffff1673ffffffffffffffffffffffffffffffffffffffff16346040516105bf90611490565b60006040518083038185875af1925050503d80600081146105fc576040519150601f19603f3d011682016040523d82523d6000602084013e610601565b606091505b5050905080610645576040517f08c379a000000000000000000000000000000000000000000000000000000000815260040161063c906114f1565b60405180910390fd5b600180858154811061065a57610659611511565b5b9060005260206000209060030201600201600082825461067a919061156f565b9250508190555060018360000160006101000a81548160ff0219169083151502179055506106a734610b77565b3373ffffffffffffffffffffffffffffffffffffffff167f363862ce8b6a796bbe3c9ae3d66de03ebed0c221251296e9b0332c2282aee907426040516106ed9190611611565b60405180910390a250505050565b6000600260003373ffffffffffffffffffffffffffffffffffffffff1673ffffffffffffffffffffffffffffffffffffffff16815260200190815260200160002090508060000160019054906101000a900460ff1615610790576040517f08c379a00000000000000000000000000000000000000000000000000000000081526004016107879061168b565b60405180910390fd5b600066071afd498d00009050803410156107df576040517f08c379a00000000000000000000000000000000000000000000000000000000081526004016107d69061143f565b60405180910390fd5b60008060009054906101000a900473ffffffffffffffffffffffffffffffffffffffff1673ffffffffffffffffffffffffffffffffffffffff163460405161082690611490565b60006040518083038185875af1925050503d8060008114610863576040519150601f19603f3d011682016040523d82523d6000602084013e610868565b606091505b50509050806108ac576040517f08c379a00000000000000000000000000000000000000000000000000000000081526004016108a3906114f1565b60405180910390fd5b6001604051806060016040528087815260200186815260200160018152509080600181540180825580915050600190039060005260206000209060030201600090919091909150600082015181600001908051906020019061090f929190610c39565b50602082015181600101908051906020019061092c929190610c39565b5060408201518160020155505060018360000160016101000a81548160ff0219169083151502179055503373ffffffffffffffffffffffffffffffffffffffff167f363862ce8b6a796bbe3c9ae3d66de03ebed0c221251296e9b0332c2282aee9074260405161099c91906116f7565b60405180910390a25050505050565b60008054906101000a900473ffffffffffffffffffffffffffffffffffffffff1681565b60026020528060005260406000206000915090508060000160009054906101000a900460ff16908060000160019054906101000a900460ff16905082565b610a15610cbf565b60018281548110610a2957610a28611511565b5b9060005260206000209060030201604051806060016040529081600082018054610a5290611355565b80601f0160208091040260200160405190810160405280929190818152602001828054610a7e90611355565b8015610acb5780601f10610aa057610100808354040283529160200191610acb565b820191906000526020600020905b815481529060010190602001808311610aae57829003601f168201915b50505050508152602001600182018054610ae490611355565b80601f0160208091040260200160405190810160405280929190818152602001828054610b1090611355565b8015610b5d5780601f10610b3257610100808354040283529160200191610b5d565b820191906000526020600020905b815481529060010190602001808311610b4057829003601f168201915b505050505081526020016002820154815250509050919050565b610c0d81604051602401610b8b9190611725565b6040516020818303038152906040527ff5b1bba9000000000000000000000000000000000000000000000000000000007bffffffffffffffffffffffffffffffffffffffffffffffffffffffff19166020820180517bffffffffffffffffffffffffffffffffffffffffffffffffffffffff8381831617835250505050610c10565b50565b60008151905060006a636f6e736f6c652e6c6f679050602083016000808483855afa5050505050565b828054610c4590611355565b90600052602060002090601f016020900481019282610c675760008555610cae565b82601f10610c8057805160ff1916838001178555610cae565b82800160010185558215610cae579182015b82811115610cad578251825591602001919060010190610c92565b5b509050610cbb9190610ce0565b5090565b60405180606001604052806060815260200160608152602001600081525090565b5b80821115610cf9576000816000905550600101610ce1565b5090565b6000604051905090565b600080fd5b600080fd5b6000819050919050565b610d2481610d11565b8114610d2f57600080fd5b50565b600081359050610d4181610d1b565b92915050565b600060208284031215610d5d57610d5c610d07565b5b6000610d6b84828501610d32565b91505092915050565b600081519050919050565b600082825260208201905092915050565b60005b83811015610dae578082015181840152602081019050610d93565b83811115610dbd576000848401525b50505050565b6000601f19601f8301169050919050565b6000610ddf82610d74565b610de98185610d7f565b9350610df9818560208601610d90565b610e0281610dc3565b840191505092915050565b610e1681610d11565b82525050565b60006060820190508181036000830152610e368186610dd4565b90508181036020830152610e4a8185610dd4565b9050610e596040830184610e0d565b949350505050565b600081519050919050565b600082825260208201905092915050565b6000819050602082019050919050565b600082825260208201905092915050565b6000610ea982610d74565b610eb38185610e8d565b9350610ec3818560208601610d90565b610ecc81610dc3565b840191505092915050565b610ee081610d11565b82525050565b60006060830160008301518482036000860152610f038282610e9e565b91505060208301518482036020860152610f1d8282610e9e565b9150506040830151610f326040860182610ed7565b508091505092915050565b6000610f498383610ee6565b905092915050565b6000602082019050919050565b6000610f6982610e61565b610f738185610e6c565b935083602082028501610f8585610e7d565b8060005b85811015610fc15784840389528151610fa28582610f3d565b9450610fad83610f51565b925060208a01995050600181019050610f89565b50829750879550505050505092915050565b60006020820190508181036000830152610fed8184610f5e565b905092915050565b600080fd5b600080fd5b7f4e487b7100000000000000000000000000000000000000000000000000000000600052604160045260246000fd5b61103782610dc3565b810181811067ffffffffffffffff8211171561105657611055610fff565b5b80604052505050565b6000611069610cfd565b9050611075828261102e565b919050565b600067ffffffffffffffff82111561109557611094610fff565b5b61109e82610dc3565b9050602081019050919050565b82818337600083830152505050565b60006110cd6110c88461107a565b61105f565b9050828152602081018484840111156110e9576110e8610ffa565b5b6110f48482856110ab565b509392505050565b600082601f83011261111157611110610ff5565b5b81356111218482602086016110ba565b91505092915050565b6000806040838503121561114157611140610d07565b5b600083013567ffffffffffffffff81111561115f5761115e610d0c565b5b61116b858286016110fc565b925050602083013567ffffffffffffffff81111561118c5761118b610d0c565b5b611198858286016110fc565b9150509250929050565b600073ffffffffffffffffffffffffffffffffffffffff82169050919050565b60006111cd826111a2565b9050919050565b6111dd816111c2565b82525050565b60006020820190506111f860008301846111d4565b92915050565b6000611209826111a2565b9050919050565b611219816111fe565b811461122457600080fd5b50565b60008135905061123681611210565b92915050565b60006020828403121561125257611251610d07565b5b600061126084828501611227565b91505092915050565b60008115159050919050565b61127e81611269565b82525050565b60006040820190506112996000830185611275565b6112a66020830184611275565b9392505050565b600060608301600083015184820360008601526112ca8282610e9e565b915050602083015184820360208601526112e48282610e9e565b91505060408301516112f96040860182610ed7565b508091505092915050565b6000602082019050818103600083015261131e81846112ad565b905092915050565b7f4e487b7100000000000000000000000000000000000000000000000000000000600052602260045260246000fd5b6000600282049050600182168061136d57607f821691505b6020821081141561138157611380611326565b5b50919050565b7f596f7520616c726561647920766f7465642e0000000000000000000000000000600082015250565b60006113bd601283610d7f565b91506113c882611387565b602082019050919050565b600060208201905081810360008301526113ec816113b0565b9050919050565b7f496e73756666696369656e742045746865722070726f76696465640000000000600082015250565b6000611429601b83610d7f565b9150611434826113f3565b602082019050919050565b600060208201905081810360008301526114588161141c565b9050919050565b600081905092915050565b50565b600061147a60008361145f565b91506114858261146a565b600082019050919050565b600061149b8261146d565b9150819050919050565b7f4661696c656420746f2073656e64206d6f6e6579000000000000000000000000600082015250565b60006114db601483610d7f565b91506114e6826114a5565b602082019050919050565b6000602082019050818103600083015261150a816114ce565b9050919050565b7f4e487b7100000000000000000000000000000000000000000000000000000000600052603260045260246000fd5b7f4e487b7100000000000000000000000000000000000000000000000000000000600052601160045260246000fd5b600061157a82610d11565b915061158583610d11565b9250827fffffffffffffffffffffffffffffffffffffffffffffffffffffffffffffffff038211156115ba576115b9611540565b5b828201905092915050565b7f766f746500000000000000000000000000000000000000000000000000000000600082015250565b60006115fb600483610d7f565b9150611606826115c5565b602082019050919050565b60006040820190506116266000830184610e0d565b8181036020830152611637816115ee565b905092915050565b7f596f7520616c72656164792070726f706f7365642e0000000000000000000000600082015250565b6000611675601583610d7f565b91506116808261163f565b602082019050919050565b600060208201905081810360008301526116a481611668565b9050919050565b7f70726f706f73616c000000000000000000000000000000000000000000000000600082015250565b60006116e1600883610d7f565b91506116ec826116ab565b602082019050919050565b600060408201905061170c6000830184610e0d565b818103602083015261171d816116d4565b905092915050565b600060208201905061173a6000830184610e0d565b9291505056fea264697066735822122079181e6bc22460ba903cdb30b9fa1fa46e8539f89a8f0ea1021431fc59e5035864736f6c634300080a0033",
  "linkReferences": {},
  "deployedLinkReferences": {}
}