{
  "_format": "hh-sol-artifact-1",
  "contractName": "VotingContract",
  "sourceName": "contracts/VotingContract.sol",
  "abi": [
    {
      "inputs": [
        {
          "internalType": "string",
          "name": "_proposal_name",
          "type": "string"
        },
        {
          "internalType": "string",
          "name": "_proposal_description",
          "type": "string"
        }
      ],
      "stateMutability": "payable",
      "type": "constructor"
    },
    {
      "anonymous": false,
      "inputs": [
        {
          "indexed": true,
          "internalType": "address",
          "name": "from",
          "type": "address"
        },
        {
          "indexed": false,
          "internalType": "uint256",
          "name": "timestamp",
          "type": "uint256"
        },
        {
          "indexed": false,
          "internalType": "string",
          "name": "name",
          "type": "string"
        }
      ],
      "name": "NewProposalOrVote",
      "type": "event"
    },
    {
      "inputs": [
        {
          "internalType": "uint256",
          "name": "_index",
          "type": "uint256"
        }
      ],
      "name": "getProposal",
      "outputs": [
        {
          "components": [
            {
              "internalType": "string",
              "name": "name",
              "type": "string"
            },
            {
              "internalType": "string",
              "name": "description",
              "type": "string"
            },
            {
              "internalType": "uint256",
              "name": "voteCount",
              "type": "uint256"
            }
          ],
          "internalType": "struct VotingContract.Proposal",
          "name": "",
          "type": "tuple"
        }
      ],
      "stateMutability": "view",
      "type": "function"
    },
    {
      "inputs": [],
      "name": "getProposals",
      "outputs": [
        {
          "components": [
            {
              "internalType": "string",
              "name": "name",
              "type": "string"
            },
            {
              "internalType": "string",
              "name": "description",
              "type": "string"
            },
            {
              "internalType": "uint256",
              "name": "voteCount",
              "type": "uint256"
            }
          ],
          "internalType": "struct VotingContract.Proposal[]",
          "name": "",
          "type": "tuple[]"
        }
      ],
      "stateMutability": "view",
      "type": "function"
    },
    {
      "inputs": [],
      "name": "getVoter",
      "outputs": [
        {
          "components": [
            {
              "internalType": "bool",
              "name": "voted",
              "type": "bool"
            },
            {
              "internalType": "bool",
              "name": "proposed",
              "type": "bool"
            }
          ],
          "internalType": "struct VotingContract.Voter",
          "name": "",
          "type": "tuple"
        }
      ],
      "stateMutability": "view",
      "type": "function"
    },
    {
      "inputs": [],
      "name": "owner",
      "outputs": [
        {
          "internalType": "address payable",
          "name": "",
          "type": "address"
        }
      ],
      "stateMutability": "view",
      "type": "function"
    },
    {
      "inputs": [
        {
          "internalType": "uint256",
          "name": "",
          "type": "uint256"
        }
      ],
      "name": "proposals",
      "outputs": [
        {
          "internalType": "string",
          "name": "name",
          "type": "string"
        },
        {
          "internalType": "string",
          "name": "description",
          "type": "string"
        },
        {
          "internalType": "uint256",
          "name": "voteCount",
          "type": "uint256"
        }
      ],
      "stateMutability": "view",
      "type": "function"
    },
    {
      "inputs": [
        {
          "internalType": "string",
          "name": "_proposal_name",
          "type": "string"
        },
        {
          "internalType": "string",
          "name": "_proposal_description",
          "type": "string"
        }
      ],
      "name": "sendProposal",
      "outputs": [],
      "stateMutability": "payable",
      "type": "function"
    },
    {
      "inputs": [
        {
          "internalType": "uint256",
          "name": "_index",
          "type": "uint256"
        }
      ],
      "name": "voteProposal",
      "outputs": [],
      "stateMutability": "payable",
      "type": "function"
    },
    {
      "inputs": [
        {
          "internalType": "address",
          "name": "",
          "type": "address"
        }
      ],
      "name": "voters",
      "outputs": [
        {
          "internalType": "bool",
          "name": "voted",
          "type": "bool"
        },
        {
          "internalType": "bool",
          "name": "proposed",
          "type": "bool"
        }
      ],
      "stateMutability": "view",
      "type": "function"
    }
  ],
  "bytecode": "0x608060405260405162001c1338038062001c1383398181016040528101906200002991906200034f565b336000806101000a81548173ffffffffffffffffffffffffffffffffffffffff021916908373ffffffffffffffffffffffffffffffffffffffff16021790555060016040518060600160405280848152602001838152602001600181525090806001815401808255809150506001900390600052602060002090600302016000909190919091506000820151816000019080519060200190620000ce92919062000102565b506020820151816001019080519060200190620000ed92919062000102565b50604082015181600201555050505062000439565b828054620001109062000403565b90600052602060002090601f01602090048101928262000134576000855562000180565b82601f106200014f57805160ff191683800117855562000180565b8280016001018555821562000180579182015b828111156200017f57825182559160200191906001019062000162565b5b5090506200018f919062000193565b5090565b5b80821115620001ae57600081600090555060010162000194565b5090565b6000604051905090565b600080fd5b600080fd5b600080fd5b600080fd5b6000601f19601f8301169050919050565b7f4e487b7100000000000000000000000000000000000000000000000000000000600052604160045260246000fd5b6200021b82620001d0565b810181811067ffffffffffffffff821117156200023d576200023c620001e1565b5b80604052505050565b600062000252620001b2565b905062000260828262000210565b919050565b600067ffffffffffffffff821115620002835762000282620001e1565b5b6200028e82620001d0565b9050602081019050919050565b60005b83811015620002bb5780820151818401526020810190506200029e565b83811115620002cb576000848401525b50505050565b6000620002e8620002e28462000265565b62000246565b905082815260208101848484011115620003075762000306620001cb565b5b620003148482856200029b565b509392505050565b600082601f830112620003345762000333620001c6565b5b815162000346848260208601620002d1565b91505092915050565b60008060408385031215620003695762000368620001bc565b5b600083015167ffffffffffffffff8111156200038a5762000389620001c1565b5b62000398858286016200031c565b925050602083015167ffffffffffffffff811115620003bc57620003bb620001c1565b5b620003ca858286016200031c565b9150509250929050565b7f4e487b7100000000000000000000000000000000000000000000000000000000600052602260045260246000fd5b600060028204905060018216806200041c57607f821691505b60208210811415620004335762000432620003d4565b5b50919050565b6117ca80620004496000396000f3fe60806040526004361061007b5760003560e01c806384a5646f1161004e57806384a5646f146101315780638da5cb5b1461014d578063a3ec138d14610178578063c7f758a8146101b65761007b565b8063013cf08b146100805780632b37f53c146100bf57806362564c48146100ea578063807896d514610115575b600080fd5b34801561008c57600080fd5b506100a760048036038101906100a29190610d5d565b6101f3565b6040516100b693929190610e32565b60405180910390f35b3480156100cb57600080fd5b506100d461033d565b6040516100e19190610ec1565b60405180910390f35b3480156100f657600080fd5b506100ff6103ca565b60405161010c919061104e565b60405180910390f35b61012f600480360381019061012a9190610d5d565b610557565b005b61014b600480360381019061014691906111a5565b6107b5565b005b34801561015957600080fd5b50610162610a65565b60405161016f919061125e565b60405180910390f35b34801561018457600080fd5b5061019f600480360381019061019a91906112b7565b610a89565b6040516101ad9291906112f3565b60405180910390f35b3480156101c257600080fd5b506101dd60048036038101906101d89190610d5d565b610ac7565b6040516101ea9190611373565b60405180910390f35b6001818154811061020357600080fd5b9060005260206000209060030201600091509050806000018054610226906113c4565b80601f0160208091040260200160405190810160405280929190818152602001828054610252906113c4565b801561029f5780601f106102745761010080835404028352916020019161029f565b820191906000526020600020905b81548152906001019060200180831161028257829003601f168201915b5050505050908060010180546102b4906113c4565b80601f01602080910402602001604051908101604052809291908181526020018280546102e0906113c4565b801561032d5780601f106103025761010080835404028352916020019161032d565b820191906000526020600020905b81548152906001019060200180831161031057829003601f168201915b5050505050908060020154905083565b610345610c31565b600260003373ffffffffffffffffffffffffffffffffffffffff1673ffffffffffffffffffffffffffffffffffffffff1681526020019081526020016000206040518060400160405290816000820160009054906101000a900460ff161515151581526020016000820160019054906101000a900460ff161515151581525050905090565b60606001805480602002602001604051908101604052809291908181526020016000905b8282101561054e5783829060005260206000209060030201604051806060016040529081600082018054610421906113c4565b80601f016020809104026020016040519081016040528092919081815260200182805461044d906113c4565b801561049a5780601f1061046f5761010080835404028352916020019161049a565b820191906000526020600020905b81548152906001019060200180831161047d57829003601f168201915b505050505081526020016001820180546104b3906113c4565b80601f01602080910402602001604051908101604052809291908181526020018280546104df906113c4565b801561052c5780601f106105015761010080835404028352916020019161052c565b820191906000526020600020905b81548152906001019060200180831161050f57829003601f168201915b50505050508152602001600282015481525050815260200190600101906103ee565b50505050905090565b6000600260003373ffffffffffffffffffffffffffffffffffffffff1673ffffffffffffffffffffffffffffffffffffffff16815260200190815260200160002090508060000160009054906101000a900460ff16156105ec576040517f08c379a00000000000000000000000000000000000000000000000000000000081526004016105e390611442565b60405180910390fd5b600066038d7ea4c6800090508034101561063b576040517f08c379a0000000000000000000000000000000000000000000000000000000008152600401610632906114ae565b60405180910390fd5b60008060009054906101000a900473ffffffffffffffffffffffffffffffffffffffff1673ffffffffffffffffffffffffffffffffffffffff1634604051610682906114ff565b60006040518083038185875af1925050503d80600081146106bf576040519150601f19603f3d011682016040523d82523d6000602084013e6106c4565b606091505b5050905080610708576040517f08c379a00000000000000000000000000000000000000000000000000000000081526004016106ff90611560565b60405180910390fd5b600180858154811061071d5761071c611580565b5b9060005260206000209060030201600201600082825461073d91906115de565b9250508190555060018360000160006101000a81548160ff0219169083151502179055503373ffffffffffffffffffffffffffffffffffffffff167f363862ce8b6a796bbe3c9ae3d66de03ebed0c221251296e9b0332c2282aee907426040516107a79190611680565b60405180910390a250505050565b6000600260003373ffffffffffffffffffffffffffffffffffffffff1673ffffffffffffffffffffffffffffffffffffffff16815260200190815260200160002090508060000160019054906101000a900460ff161561084a576040517f08c379a0000000000000000000000000000000000000000000000000000000008152600401610841906116fa565b60405180910390fd5b600066071afd498d0000905080341015610899576040517f08c379a0000000000000000000000000000000000000000000000000000000008152600401610890906114ae565b60405180910390fd5b60008060009054906101000a900473ffffffffffffffffffffffffffffffffffffffff1673ffffffffffffffffffffffffffffffffffffffff16346040516108e0906114ff565b60006040518083038185875af1925050503d806000811461091d576040519150601f19603f3d011682016040523d82523d6000602084013e610922565b606091505b5050905080610966576040517f08c379a000000000000000000000000000000000000000000000000000000000815260040161095d90611560565b60405180910390fd5b600160405180606001604052808781526020018681526020016001815250908060018154018082558091505060019003906000526020600020906003020160009091909190915060008201518160000190805190602001906109c9929190610c4f565b5060208201518160010190805190602001906109e6929190610c4f565b5060408201518160020155505060018360000160016101000a81548160ff0219169083151502179055503373ffffffffffffffffffffffffffffffffffffffff167f363862ce8b6a796bbe3c9ae3d66de03ebed0c221251296e9b0332c2282aee90742604051610a569190611766565b60405180910390a25050505050565b60008054906101000a900473ffffffffffffffffffffffffffffffffffffffff1681565b60026020528060005260406000206000915090508060000160009054906101000a900460ff16908060000160019054906101000a900460ff16905082565b610acf610cd5565b60018281548110610ae357610ae2611580565b5b9060005260206000209060030201604051806060016040529081600082018054610b0c906113c4565b80601f0160208091040260200160405190810160405280929190818152602001828054610b38906113c4565b8015610b855780601f10610b5a57610100808354040283529160200191610b85565b820191906000526020600020905b815481529060010190602001808311610b6857829003601f168201915b50505050508152602001600182018054610b9e906113c4565b80601f0160208091040260200160405190810160405280929190818152602001828054610bca906113c4565b8015610c175780601f10610bec57610100808354040283529160200191610c17565b820191906000526020600020905b815481529060010190602001808311610bfa57829003601f168201915b505050505081526020016002820154815250509050919050565b60405180604001604052806000151581526020016000151581525090565b828054610c5b906113c4565b90600052602060002090601f016020900481019282610c7d5760008555610cc4565b82601f10610c9657805160ff1916838001178555610cc4565b82800160010185558215610cc4579182015b82811115610cc3578251825591602001919060010190610ca8565b5b509050610cd19190610cf6565b5090565b60405180606001604052806060815260200160608152602001600081525090565b5b80821115610d0f576000816000905550600101610cf7565b5090565b6000604051905090565b600080fd5b600080fd5b6000819050919050565b610d3a81610d27565b8114610d4557600080fd5b50565b600081359050610d5781610d31565b92915050565b600060208284031215610d7357610d72610d1d565b5b6000610d8184828501610d48565b91505092915050565b600081519050919050565b600082825260208201905092915050565b60005b83811015610dc4578082015181840152602081019050610da9565b83811115610dd3576000848401525b50505050565b6000601f19601f8301169050919050565b6000610df582610d8a565b610dff8185610d95565b9350610e0f818560208601610da6565b610e1881610dd9565b840191505092915050565b610e2c81610d27565b82525050565b60006060820190508181036000830152610e4c8186610dea565b90508181036020830152610e608185610dea565b9050610e6f6040830184610e23565b949350505050565b60008115159050919050565b610e8c81610e77565b82525050565b604082016000820151610ea86000850182610e83565b506020820151610ebb6020850182610e83565b50505050565b6000604082019050610ed66000830184610e92565b92915050565b600081519050919050565b600082825260208201905092915050565b6000819050602082019050919050565b600082825260208201905092915050565b6000610f2482610d8a565b610f2e8185610f08565b9350610f3e818560208601610da6565b610f4781610dd9565b840191505092915050565b610f5b81610d27565b82525050565b60006060830160008301518482036000860152610f7e8282610f19565b91505060208301518482036020860152610f988282610f19565b9150506040830151610fad6040860182610f52565b508091505092915050565b6000610fc48383610f61565b905092915050565b6000602082019050919050565b6000610fe482610edc565b610fee8185610ee7565b93508360208202850161100085610ef8565b8060005b8581101561103c578484038952815161101d8582610fb8565b945061102883610fcc565b925060208a01995050600181019050611004565b50829750879550505050505092915050565b600060208201905081810360008301526110688184610fd9565b905092915050565b600080fd5b600080fd5b7f4e487b7100000000000000000000000000000000000000000000000000000000600052604160045260246000fd5b6110b282610dd9565b810181811067ffffffffffffffff821117156110d1576110d061107a565b5b80604052505050565b60006110e4610d13565b90506110f082826110a9565b919050565b600067ffffffffffffffff8211156111105761110f61107a565b5b61111982610dd9565b9050602081019050919050565b82818337600083830152505050565b6000611148611143846110f5565b6110da565b90508281526020810184848401111561116457611163611075565b5b61116f848285611126565b509392505050565b600082601f83011261118c5761118b611070565b5b813561119c848260208601611135565b91505092915050565b600080604083850312156111bc576111bb610d1d565b5b600083013567ffffffffffffffff8111156111da576111d9610d22565b5b6111e685828601611177565b925050602083013567ffffffffffffffff81111561120757611206610d22565b5b61121385828601611177565b9150509250929050565b600073ffffffffffffffffffffffffffffffffffffffff82169050919050565b60006112488261121d565b9050919050565b6112588161123d565b82525050565b6000602082019050611273600083018461124f565b92915050565b60006112848261121d565b9050919050565b61129481611279565b811461129f57600080fd5b50565b6000813590506112b18161128b565b92915050565b6000602082840312156112cd576112cc610d1d565b5b60006112db848285016112a2565b91505092915050565b6112ed81610e77565b82525050565b600060408201905061130860008301856112e4565b61131560208301846112e4565b9392505050565b600060608301600083015184820360008601526113398282610f19565b915050602083015184820360208601526113538282610f19565b91505060408301516113686040860182610f52565b508091505092915050565b6000602082019050818103600083015261138d818461131c565b905092915050565b7f4e487b7100000000000000000000000000000000000000000000000000000000600052602260045260246000fd5b600060028204905060018216806113dc57607f821691505b602082108114156113f0576113ef611395565b5b50919050565b7f596f7520616c726561647920766f7465642e0000000000000000000000000000600082015250565b600061142c601283610d95565b9150611437826113f6565b602082019050919050565b6000602082019050818103600083015261145b8161141f565b9050919050565b7f496e73756666696369656e742045746865722070726f76696465640000000000600082015250565b6000611498601b83610d95565b91506114a382611462565b602082019050919050565b600060208201905081810360008301526114c78161148b565b9050919050565b600081905092915050565b50565b60006114e96000836114ce565b91506114f4826114d9565b600082019050919050565b600061150a826114dc565b9150819050919050565b7f4661696c656420746f2073656e64206d6f6e6579000000000000000000000000600082015250565b600061154a601483610d95565b915061155582611514565b602082019050919050565b600060208201905081810360008301526115798161153d565b9050919050565b7f4e487b7100000000000000000000000000000000000000000000000000000000600052603260045260246000fd5b7f4e487b7100000000000000000000000000000000000000000000000000000000600052601160045260246000fd5b60006115e982610d27565b91506115f483610d27565b9250827fffffffffffffffffffffffffffffffffffffffffffffffffffffffffffffffff03821115611629576116286115af565b5b828201905092915050565b7f766f746500000000000000000000000000000000000000000000000000000000600082015250565b600061166a600483610d95565b915061167582611634565b602082019050919050565b60006040820190506116956000830184610e23565b81810360208301526116a68161165d565b905092915050565b7f596f7520616c72656164792070726f706f7365642e0000000000000000000000600082015250565b60006116e4601583610d95565b91506116ef826116ae565b602082019050919050565b60006020820190508181036000830152611713816116d7565b9050919050565b7f70726f706f73616c000000000000000000000000000000000000000000000000600082015250565b6000611750600883610d95565b915061175b8261171a565b602082019050919050565b600060408201905061177b6000830184610e23565b818103602083015261178c81611743565b90509291505056fea2646970667358221220a460ad002e16e3694dcb6a5d70c97e06abf048e58bf87144902b3ac7825f35cb64736f6c634300080a0033",
  "linkReferences": {},
  "deployedLinkReferences": {}
}